{
  "contractName": "Calculator",
  "abi": [
    {
      "anonymous": false,
      "inputs": [
        {
          "indexed": false,
          "internalType": "string",
          "name": "msg",
          "type": "string"
        },
        {
          "indexed": false,
          "internalType": "uint256",
          "name": "value",
          "type": "uint256"
        }
      ],
      "name": "success",
      "type": "event"
    },
    {
      "inputs": [],
      "name": "result",
      "outputs": [
        {
          "internalType": "uint256",
          "name": "",
          "type": "uint256"
        }
      ],
      "stateMutability": "view",
      "type": "function",
      "constant": true
    },
    {
      "inputs": [
        {
          "internalType": "uint256",
          "name": "num1",
          "type": "uint256"
        },
        {
          "internalType": "uint256",
          "name": "num2",
          "type": "uint256"
        }
      ],
      "name": "addNum",
      "outputs": [
        {
          "internalType": "uint256",
          "name": "",
          "type": "uint256"
        }
      ],
      "stateMutability": "nonpayable",
      "type": "function"
    },
    {
      "inputs": [
        {
          "internalType": "uint256",
          "name": "num1",
          "type": "uint256"
        },
        {
          "internalType": "uint256",
          "name": "num2",
          "type": "uint256"
        }
      ],
      "name": "subNum",
      "outputs": [
        {
          "internalType": "uint256",
          "name": "",
          "type": "uint256"
        }
      ],
      "stateMutability": "nonpayable",
      "type": "function"
    },
    {
      "inputs": [
        {
          "internalType": "uint256",
          "name": "num1",
          "type": "uint256"
        },
        {
          "internalType": "uint256",
          "name": "num2",
          "type": "uint256"
        }
      ],
      "name": "mulNum",
      "outputs": [
        {
          "internalType": "uint256",
          "name": "",
          "type": "uint256"
        }
      ],
      "stateMutability": "nonpayable",
      "type": "function"
    },
    {
      "inputs": [
        {
          "internalType": "uint256",
          "name": "num1",
          "type": "uint256"
        },
        {
          "internalType": "uint256",
          "name": "num2",
          "type": "uint256"
        }
      ],
      "name": "divNum",
      "outputs": [
        {
          "internalType": "uint256",
          "name": "",
          "type": "uint256"
        }
      ],
      "stateMutability": "nonpayable",
      "type": "function"
    }
  ],
  "bytecode": "0x608060405234801561001057600080fd5b506106ad806100206000396000f3fe608060405234801561001057600080fd5b50600436106100575760003560e01c8063653721471461005c5780636f827c3e1461007a5780637eaddeaa146100aa578063e4ada89c146100da578063fb596d071461010a575b600080fd5b61006461013a565b60405161007191906102b9565b60405180910390f35b610094600480360381019061008f9190610305565b610140565b6040516100a191906102b9565b60405180910390f35b6100c460048036038101906100bf9190610305565b610198565b6040516100d191906102b9565b60405180910390f35b6100f460048036038101906100ef9190610305565b6101f0565b60405161010191906102b9565b60405180910390f35b610124600480360381019061011f9190610305565b610248565b60405161013191906102b9565b60405180910390f35b60005481565b6000818361014e9190610374565b6000819055507fcff9825eb5f7113a05f2008b9b155a73b43223f1acacaefe08ba9295a715a0326000546040516101859190610405565b60405180910390a1600054905092915050565b600081836101a69190610462565b6000819055507fcff9825eb5f7113a05f2008b9b155a73b43223f1acacaefe08ba9295a715a0326000546040516101dd91906104df565b60405180910390a1600054905092915050565b600081836101fe919061050d565b6000819055507fcff9825eb5f7113a05f2008b9b155a73b43223f1acacaefe08ba9295a715a032600054604051610235919061058d565b60405180910390a1600054905092915050565b6000818361025691906105bb565b6000819055507fcff9825eb5f7113a05f2008b9b155a73b43223f1acacaefe08ba9295a715a03260005460405161028d9190610649565b60405180910390a1600054905092915050565b6000819050919050565b6102b3816102a0565b82525050565b60006020820190506102ce60008301846102aa565b92915050565b600080fd5b6102e2816102a0565b81146102ed57600080fd5b50565b6000813590506102ff816102d9565b92915050565b6000806040838503121561031c5761031b6102d4565b5b600061032a858286016102f0565b925050602061033b858286016102f0565b9150509250929050565b7f4e487b7100000000000000000000000000000000000000000000000000000000600052601160045260246000fd5b600061037f826102a0565b915061038a836102a0565b92508282039050818111156103a2576103a1610345565b5b92915050565b600082825260208201905092915050565b7f5375627472616374696f6e20646f6e6500000000000000000000000000000000600082015250565b60006103ef6010836103a8565b91506103fa826103b9565b602082019050919050565b6000604082019050818103600083015261041e816103e2565b905061042d60208301846102aa565b92915050565b7f4e487b7100000000000000000000000000000000000000000000000000000000600052601260045260246000fd5b600061046d826102a0565b9150610478836102a0565b92508261048857610487610433565b5b828204905092915050565b7f4469766973696f6e20646f6e6500000000000000000000000000000000000000600082015250565b60006104c9600d836103a8565b91506104d482610493565b602082019050919050565b600060408201905081810360008301526104f8816104bc565b905061050760208301846102aa565b92915050565b6000610518826102a0565b9150610523836102a0565b925082820190508082111561053b5761053a610345565b5b92915050565b7f4164646974696f6e20646f6e6500000000000000000000000000000000000000600082015250565b6000610577600d836103a8565b915061058282610541565b602082019050919050565b600060408201905081810360008301526105a68161056a565b90506105b560208301846102aa565b92915050565b60006105c6826102a0565b91506105d1836102a0565b92508282026105df816102a0565b915082820484148315176105f6576105f5610345565b5b5092915050565b7f4d756c7469706c69636174696f6e20646f6e6500000000000000000000000000600082015250565b60006106336013836103a8565b915061063e826105fd565b602082019050919050565b6000604082019050818103600083015261066281610626565b905061067160208301846102aa565b9291505056fea2646970667358221220fb70a0f8159de6bb86739ea46eafab7d9e38f080d31f49413a06d04c9da955df64736f6c63430008110033",
  "immutableReferences": {},
  "source": "// SPDX-License-Identifier: MIT\r\npragma solidity ^0.8.0;\r\n\r\ncontract Calculator {\r\n\r\n    uint public result;\r\n    event success(string msg, uint value);\r\n\r\n    function addNum(uint num1, uint num2) public returns(uint){\r\n        result = num1 + num2;       \r\n        emit success(\"Addition done\", result);\r\n        return result;\r\n    }\r\n\r\n    function subNum(uint num1, uint num2) public returns(uint){\r\n        result = num1 - num2;    \r\n        emit success(\"Subtraction done\", result);\r\n        return result;\r\n    }\r\n\r\n    function mulNum(uint num1, uint num2) public returns(uint){\r\n        result = num1 * num2;    \r\n        emit success(\"Multiplication done\", result);\r\n        return result;\r\n    }\r\n\r\n    function divNum(uint num1, uint num2) public returns(uint){\r\n        result = num1 / num2;    \r\n        emit success(\"Division done\", result);\r\n        return result;\r\n    }\r\n}   ",
  "sourcePath": "/home/shubham/WEB3Projects/demoApp/contracts/Calculator.sol",
  "compiler": {
    "name": "solc",
    "version": "0.8.17+commit.8df45f5f.Emscripten.clang"
  },
  "schemaVersion": "3.4.10",
  "updatedAt": "2022-11-10T03:56:31.940Z",
  "networkType": "ethereum",
  "devdoc": {
    "kind": "dev",
    "methods": {},
    "version": 1
  },
  "userdoc": {
    "kind": "user",
    "methods": {},
    "version": 1
  }
}